:020000040800F2
:1000000000800120352C0008312500083325000828
:1000100035250008372500083925000800000000B4
:100020000000000000000000000000003B25000868
:100030003D250008000000003F250008412500087C
:10004000852C0008852C0008852C0008852C0008CC
:10005000852C0008852C0008852C0008852C0008BC
:10006000852C0008852C0008852C0008852C0008AC
:10007000852C0008852C0008852C0008852C00089C
:10008000852C0008852C0008852C00080000000045
:10009000000000000000000000000000852C0008A7
:1000A000852C0008852C0008852C0008852C00086C
:1000B000852C0008852C0008852C0008852C00085C
:1000C000852C0008852C0008852C0008852C00084C
:1000D000852C0008852C0008852C000800000000F5
:1000E000852C0008852C0008852C000800000000E5
:1000F000000000000000000000000000852C000847
:1001000000000000852C000849250008852C000807
:1001100000000000000000000000000000000000DF
:10012000852C0008852C0008852C0008852C0008EB
:10013000852C000800000000000000000000000006
:10014000000000000000000000000000852C0008F6
:10015000852C0008852C0008852C00083D27000808
:10016000852C0008852C000800000000000000001D
:10017000000000000000000000000000000000007F
:1001800000000000852C00080000000000000000B6
:04019000852C0008B2
:1001C00010B5054C237833B9044B13B10448AFF391
:1001D00000800123237010BDC8090020000000002A
:1001E000D4B5000808B5034B1BB103490348AFF36E
:1001F000008008BD00000000CC090020D4B5000834
:1002000081F0004102E000BF83F0004330B54FEAC7
:1002100041044FEA430594EA050F08BF90EA020F34
:100220001FBF54EA000C55EA020C7FEA645C7FEAC7
:10023000655C00F0E2804FEA5454D4EB5555B8BFEA
:100240006D420CDD2C4480EA020281EA030382EA5B
:10025000000083EA010180EA020281EA0303362DED
:1002600088BF30BD11F0004F4FEA01314FF4801CC0
:100270004CEA113102D0404261EB410113F0004FD2
:100280004FEA03334CEA133302D0524263EB430389
:1002900094EA050F00F0A780A4F10104D5F1200E27
:1002A0000DDB02FA0EFC22FA05F2801841F1000182
:1002B00003FA0EF2801843FA05F359410EE0A5F156
:1002C00020050EF1200E012A03FA0EFC28BF4CF087
:1002D000020C43FA05F3C01851EBE37101F000453D
:1002E00007D54FF0000EDCF1000C7EEB00006EEB4A
:1002F0000101B1F5801F1BD3B1F5001F0CD34908D4
:100300005FEA30004FEA3C0C04F101044FEA44522A
:1003100012F5800F80F09A80BCF1004F08BF5FEAB1
:10032000500C50F1000041EB045141EA050130BD91
:100330005FEA4C0C404141EB0101013C28BFB1F5A3
:10034000801FE9D291F0000F04BF01460020B1FAEE
:1003500081F308BF2033A3F10B03B3F120020CDAC1
:100360000C3208DD02F1140CC2F10C0201FA0CF09F
:1003700021FA02F10CE002F11402D8BFC2F1200C04
:1003800001FA02F120FA0CFCDCBF41EA0C019040BA
:10039000E41AA2BF01EB0451294330BD6FEA040403
:1003A0001F3C1CDA0C340EDC04F11404C4F12002EE
:1003B00020FA04F001FA02F340EA030021FA04F300
:1003C00045EA030130BDC4F10C04C4F1200220FA57
:1003D00002F001FA04F340EA0300294630BD21FA95
:1003E00004F0294630BD94F0000F83F4801306BF5B
:1003F00081F480110134013D4EE77FEA645C18BF4F
:100400007FEA655C29D094EA050F08BF90EA020FE5
:1004100005D054EA000C04BF1946104630BD91EADD
:10042000030F1EBF0021002030BD5FEA545C05D1E0
:100430004000494128BF41F0004130BD14F580041F
:100440003CBF01F5801130BD01F0004545F0FE4193
:1004500041F470014FF0000030BD7FEA645C1ABFC8
:10046000194610467FEA655C1CBF0B46024650EAFF
:10047000013406BF52EA033591EA030F41F400212B
:1004800030BD00BF90F0000F04BF0021704730B5B1
:100490004FF4806404F132044FF000054FF0000186
:1004A00050E700BF90F0000F04BF0021704730B547
:1004B0004FF4806404F1320410F0004548BF40421C
:1004C0004FF000013EE700BF42004FEAE2014FEA71
:1004D00031014FEA02701FBF12F07F4393F07F4F4C
:1004E00081F06051704732F07F4208BF704793F04F
:1004F0007F4F04BF41F40021704730B54FF4607462
:1005000001F0004521F000411CE700BF50EA010264
:1005100008BF704730B54FF000050AE050EA01020D
:1005200008BF704730B511F0004502D5404261EB7D
:1005300041014FF4806404F132045FEA915C3FF4BE
:10054000D8AE4FF003025FEADC0C18BF03325FEA5B
:10055000DC0C18BF033202EBDC02C2F1200300FA0C
:1005600003FC20FA02F001FA03FE40EA0E0021FA31
:1005700002F11444BDE600BF4FEA4102B2F1E0438C
:1005800024BFB3F5001CDCF1FE5C0DD901F0004C7A
:100590004FEAC0024CEA5070B2F1004F40EB8300CA
:1005A00008BF20F00100704711F0804F21D113F1F6
:1005B0003872BCBF01F00040704741F480114FEA2F
:1005C0005252C2F11802C2F1200C10FA0CF320FAB8
:1005D00002F018BF40F001004FEAC1234FEAD323D5
:1005E00003FA0CFC40EA0C0023FA02F34FEA43033F
:1005F000CCE77FEA625307D150EA01331EBF4FF0C8
:10060000FE4040F44000704701F0004040F0FE40E2
:1006100040F40000704700BF80F0004002E000BFDF
:1006200081F0004142001FBF5FEA410392EA030FDD
:100630007FEA226C7FEA236C6AD04FEA1262D2EB27
:100640001363C1BFD218414048404140B8BF5B422C
:10065000192B88BF704710F0004F40F4000020F0C5
:100660007F4018BF404211F0004F41F4000121F0DB
:100670007F4118BF494292EA030F3FD0A2F1010225
:1006800041FA03FC10EB0C00C3F1200301FA03F163
:1006900000F0004302D5494260EB4000B0F5000F86
:1006A00013D3B0F1807F06D340084FEA310102F145
:1006B0000102FE2A51D2B1F1004F40EBC25008BFF7
:1006C00020F0010040EA03007047490040EB0000C1
:1006D000013A28BFB0F5000FEDD2B0FA80FCACF1C2
:1006E000080CB2EB0C0200FA0CF0AABF00EBC250EF
:1006F00052421843BCBFD0401843704792F0000FDD
:1007000081F4000106BF80F400000132013BB5E72F
:100710004FEA41037FEA226C18BF7FEA236C21D0A5
:1007200092EA030F04D092F0000F08BF084670470A
:1007300090EA010F1CBF0020704712F07F4F04D1D8
:10074000400028BF40F00040704712F100723CBFEB
:1007500000F50000704700F0004343F0FE4040F415
:10076000000070477FEA226216BF08467FEA2363D3
:100770000146420206BF5FEA412390EA010F40F4BE
:10078000800070474FF0000304E000BF10F000430A
:1007900048BF40425FEA000C08BF704743F09643F1
:1007A00001464FF000001CE050EA010208BF70470C
:1007B0004FF000030AE000BF50EA010208BF704793
:1007C00011F0004302D5404261EB41015FEA010CA8
:1007D00002BF84460146002043F0B64308BFA3F1A0
:1007E0008053A3F50003BCFA8CF2083AA3EBC25382
:1007F00010DB01FA02FC634400FA02FCC2F12002A1
:10080000BCF1004F20FA02F243EB020008BF20F0D7
:100810000100704702F1200201FA02FCC2F120023D
:1008200050EA4C0021FA02F243EB020008BF20EA32
:10083000DC7070474FF0FF0C1CEAD0521EBF1CEA60
:10084000D15392EA0C0F93EA0C0F6FD01A4480EA4E
:10085000010C400218BF5FEA41211ED04FF0006337
:1008600043EA501043EA5111A0FB01310CF0004063
:10087000B1F5000F3EBF490041EAD3715B0040EA89
:10088000010062F17F02FD2A1DD8B3F1004F40EB59
:10089000C25008BF20F00100704790F0000F0CF02C
:1008A000004C08BF49024CEA502040EA51207F3AF0
:1008B000C2BFD2F1FF0340EAC250704740F40000CB
:1008C0004FF00003013A5DDC12F1190FDCBF00F0BC
:1008D00000407047C2F10002410021FA02F1C2F16A
:1008E000200200FA02FC5FEA310040F1000053EA06
:1008F0004C0308BF20EADC70704792F0000F00F054
:10090000004C02BF400010F4000F013AF9D040EA59
:100910000C0093F0000F01F0004C02BF490011F4ED
:10092000000F013BF9D041EA0C018FE70CEAD153EB
:1009300092EA0C0F18BF93EA0C0F0AD030F0004C6B
:1009400018BF31F0004CD8D180EA010000F000401F
:10095000704790F0000F17BF90F0004F084691F0DD
:10096000000F91F0004F14D092EA0C0F01D1420217
:100970000FD193EA0C0F03D14B0218BF084608D1E0
:1009800080EA010000F0004040F0FE4040F400002A
:10099000704740F0FE4040F4400070474FF0FF0CBD
:1009A0001CEAD0521EBF1CEAD15392EA0C0F93EA04
:1009B0000C0F69D0A2EB030280EA010C49024FEA56
:1009C000402037D04FF0805343EA111143EA10130F
:1009D0000CF000408B4238BF5B0042F17D024FF4C7
:1009E000000C8B4224BF5B1A40EA0C00B3EB510FA2
:1009F00024BFA3EB510340EA5C00B3EB910F24BF8B
:100A0000A3EB910340EA9C00B3EBD10F24BFA3EB0F
:100A1000D10340EADC001B0118BF5FEA1C1CE0D1D7
:100A2000FD2A3FF650AF8B4240EBC25008BF20F08A
:100A3000010070470CF0004C4CEA50207F32C2BFDE
:100A4000D2F1FF0340EAC250704740F400004FF07B
:100A50000003013A37E792F0000F00F0004C02BFAC
:100A6000400010F4000F013AF9D040EA0C0093F076
:100A7000000F01F0004C02BF490011F4000F013BD0
:100A8000F9D041EA0C0195E70CEAD15392EA0C0F38
:100A900008D142027FF47DAF93EA0C0F7FF470AF70
:100AA000084676E793EA0C0F04D14B023FF44CAFB3
:100AB00008466EE730F0004C18BF31F0004CCAD148
:100AC00030F000427FF45CAF31F000437FF43CAF84
:100AD0005FE700BF4FF0FF3C06E000BF4FF0010CA6
:100AE00002E000BF4FF0010C4DF804CD4FEA400288
:100AF0004FEA41037FEA226C18BF7FEA236C11D0D2
:100B000001B052EA530C18BF90EA010F58BFB2EB84
:100B1000030088BFC81738BF6FEAE17018BF40F004
:100B2000010070477FEA226C02D15FEA402C05D1B8
:100B30007FEA236CE4D15FEA412CE1D05DF8040B3D
:100B4000704700BF844608466146FFE70FB5FFF7D0
:100B5000C9FF002848BF10F1000F0FBD4DF808ED88
:100B6000FFF7F4FF0CBF012000205DF808FB00BF79
:100B70004DF808EDFFF7EAFF34BF012000205DF8D3
:100B800008FB00BF4DF808EDFFF7E0FF94BF012020
:100B900000205DF808FB00BF4DF808EDFFF7D2FF1D
:100BA00094BF012000205DF808FB00BF4DF808ED60
:100BB000FFF7C8FF34BF012000205DF808FB00BF2D
:100BC0004FEA4002B2F1FE4F0FD34FF09E03B3EB5A
:100BD00012620DD94FEA002343F0004310F0004F9A
:100BE00023FA02F018BF404270474FF000007047F0
:100BF00012F1610F01D1420205D110F0004008BF8F
:100C00006FF0004070474FF00000704742000ED276
:100C1000B2F1FE4F0BD34FF09E03B3EB126209D437
:100C20004FEA002343F0004323FA02F070474FF0ED
:100C30000000704712F1610F01D1420202D14FF062
:100C4000FF3070474FF00000704700BF53B94AB9FA
:100C5000002908BF00281CBF4FF0FF314FF0FF30C4
:100C600000F074B9ADF1080C6DE904CE00F006F89F
:100C7000DDF804E0DDE9022304B070472DE9F04718
:100C8000089E0D4604468846002B4DD18A42944664
:100C900068D9B2FA82F252B101FA02F3C2F120012C
:100CA00020FA01F10CFA02FC41EA030894404FEAF1
:100CB0001C45210CB8FBF5FE1FFA8CF705FB1E83C3
:100CC00041EA03430EFB07F199420BD91CEB0303E6
:100CD0000EF1FF3080F01E81994240F21B81AEF18F
:100CE000020E63445B1AA4B2B3FBF5F005FB1033AC
:100CF00044EA034400FB07F7A7420AD91CEB0404AB
:100D000000F1FF3380F00881A74240F2058164447E
:100D10000238E41B40EA0E4000211EB1D4400023FB
:100D2000C6E90043BDE8F0878B4208D9002E00F0E9
:100D3000EE800021C6E900050846BDE8F087B3FA59
:100D400083F100294AD1AB4202D3824200F2F980FA
:100D5000841A65EB030301209846002EE2D0C6E911
:100D60000048DFE702B9FFDEB2FA82F2002A40F063
:100D70009180A1EB0C054FEA1C471FFA8CFE012164
:100D8000B5FBF7F307FB1350250C45EA00450EFBB6
:100D900003F0A84208D91CEB050503F1FF3802D285
:100DA000A84200F2CB8043462D1AA4B2B5FBF7F05F
:100DB00007FB105544EA05440EFB00FEA64508D982
:100DC0001CEB040400F1FF3502D2A64500F2BB8003
:100DD0002846A4EB0E0440EA03409EE7C1F1200739
:100DE0008B4022FA07FC4CEA030C20FA07F405FAC0
:100DF00001F31C43FD404FEA1C4900FA01F3B5FB27
:100E0000F9F8200C1FFA8CFE09FB185540EA05453D
:100E100008FB0EF0A84202FA01F20BD91CEB050503
:100E200008F1FF3A80F08880A84240F28580A8F15E
:100E3000020865442D1AA4B2B5FBF9F009FB105560
:100E400044EA054500FB0EFEAE4508D91CEB05053E
:100E500000F1FF346CD2AE456AD90238654440EAED
:100E60000840A0FB0294A5EB0E05A542C846A64685
:100E700056D353D05EB1B3EB080265EB0E0505FA0D
:100E800007F722FA01F3CD401F43C6E900750021A0
:100E9000BDE8F087C2F1200320FA03F10CFA02FC4E
:100EA00025FA03F395400D434FEA1C471FFA8CFEC9
:100EB000B3FBF7F107FB11302B0C43EA004301FBB6
:100EC0000EF0984204FA02F408D91CEB030301F176
:100ED000FF382FD298422DD9023963441B1AADB284
:100EE000B3FBF7F007FB103345EA034500FB0EF3B5
:100EF000AB4208D91CEB050500F1FF3816D2AB4216
:100F000014D902386544ED1A40EA014138E7314608
:100F1000304607E78646E5E61846FAE64B45A9D28D
:100F2000B9EB020864EB0C0E0138A3E74046EAE790
:100F3000204694E74146D1E7D0467BE7023B654433
:100F400032E7084609E76444023842E7704700BFC9
:100F5000844641EA000313F003036DD1403A41D3C4
:100F600051F8043B40F8043B51F8043B40F8043B83
:100F700051F8043B40F8043B51F8043B40F8043B73
:100F800051F8043B40F8043B51F8043B40F8043B63
:100F900051F8043B40F8043B51F8043B40F8043B53
:100FA00051F8043B40F8043B51F8043B40F8043B43
:100FB00051F8043B40F8043B51F8043B40F8043B33
:100FC00051F8043B40F8043B51F8043B40F8043B23
:100FD00051F8043B40F8043B51F8043B40F8043B13
:100FE000403ABDD2303211D351F8043B40F8043BB3
:100FF00051F8043B40F8043B51F8043B40F8043BF3
:1010000051F8043B40F8043B103AEDD20C3205D3C2
:1010100051F8043B40F8043B043AF9D2043208D0BA
:10102000D2071CBF11F8013B00F8013B01D30B882C
:1010300003806046704700BF082A13D38B078DD00A
:1010400010F003038AD0C3F10403D21ADB071CBFDC
:1010500011F8013B00F8013B80D331F8023B20F846
:10106000023B7BE7043AD9D3013A11F8013B00F87F
:10107000013BF9D20B7803704B7843708B78837007
:101080006046704700000000000000000000000003
:101090000000000000000000000000000000000050
:1010A0000000000000000000000000000000000040
:1010B0000000000000000000000000000000000030
:1010C00090F800F06DE9024520F007016FF0000C88
:1010D00010F0070491F820F040F049804FF0000430
:1010E0006FF00700D1E9002391F840F000F108000B
:1010F00082FA4CF2A4FA8CF283FA4CF3A2FA8CF343
:101100004BBBD1E9022382FA4CF200F10800A4FAA9
:101110008CF283FA4CF3A2FA8CF3E3B9D1E90423FD
:1011200082FA4CF200F10800A4FA8CF283FA4CF334
:10113000A2FA8CF37BB9D1E9062301F1200182FAEE
:101140004CF200F10800A4FA8CF283FA4CF3A2FAF4
:101150008CF3002BC6D0002A04BF04301A4612BA02
:10116000B2FA82F2FDE8024500EBD2007047D1E905
:10117000002304F00305C4F100004FEAC50514F094
:10118000040F91F840F00CFA05F562EA05021CBF65
:1011900063EA050362464FF00004A9E7000000007F
:1011A00001F0FF01102A2BDB10F0070F08D010F818
:1011B000013B013A8B422DD010F0070F42B3F6D11C
:1011C000F0B441EA012141EA014122F007047FF035
:1011D00000070023F0E80256083C85EA010586EA8C
:1011E000010685FA47F5A3FA87F586FA47F6A5FAC8
:1011F00087F68EB9EED1F0BC01F0FF0102F00702D4
:1012000032B110F8013B013A83EA010313B1F8D17E
:101210000020704701387047002D06BF354603385F
:10122000073815F0010F07D1013015F4807F02BF98
:10123000013015F4C03F0130F0BC0138704700BFE9
:1012400070B54FF0FF0C4CF4E06C1CEA11541DBF5C
:101250001CEA135594EA0C0F95EA0C0F00F0DEF827
:101260002C4481EA030621EA4C5123EA4C5350EA0C
:10127000013518BF52EA033541F4801143F480135D
:1012800038D0A0FB02CE4FF00005E1FB02E506F0EE
:101290000042E0FB03E54FF00006E1FB03569CF043
:1012A000000F18BF4EF0010EA4F1FF04B6F5007F49
:1012B00064F5407404D25FEA4E0E6D4146EB0606BB
:1012C00042EAC62141EA55514FEAC52040EA5E5044
:1012D0004FEACE2EB4F1FD0C88BFBCF5E06F1ED8EE
:1012E000BEF1004F08BF5FEA500E50F1000041EB25
:1012F000045170BD06F0004646EA010140EA0200D2
:1013000081EA0301B4EB5C04C2BFD4EB0C0541EAF3
:10131000045170BD41F480114FF0000E013C00F308
:10132000AB8014F1360FDEBF002001F0004170BD2C
:10133000C4F10004203C35DA0C341BDC04F1140445
:10134000C4F1200500FA05F320FA04F001FA05F2D1
:1013500040EA020001F0004221F0004110EBD3709E
:1013600021FA04F642EB06015EEA430E08BF20EACA
:10137000D37070BDC4F10C04C4F1200500FA04F36D
:1013800020FA05F001FA04F240EA020001F00041FF
:1013900010EBD37041F100015EEA430E08BF20EA72
:1013A000D37070BDC4F1200500FA05F24EEA020EBA
:1013B00020FA04F301FA05F243EA020321FA04F0E9
:1013C00001F0004121FA04F220EA020000EBD370A0
:1013D0005EEA430E08BF20EAD37070BD94F0000FA0
:1013E0000FD101F00046400041EB010111F4801FD4
:1013F00008BF013CF7D041EA060195F0000F18BF85
:10140000704703F00046520043EB030313F4801FC0
:1014100008BF013DF7D043EA0603704794EA0C0F7A
:101420000CEA135518BF95EA0C0F0CD050EA410690
:1014300018BF52EA4306D1D181EA030101F000410D
:101440004FF0000070BD50EA410606BF1046194635
:1014500052EA430619D094EA0C0F02D150EA013641
:1014600013D195EA0C0F05D152EA03361CBF104682
:1014700019460AD181EA030101F0004141F0FE4121
:1014800041F470014FF0000070BD41F0FE4141F4A5
:10149000780170BD70B54FF0FF0C4CF4E06C1CEAA5
:1014A00011541DBF1CEA135594EA0C0F95EA0C0F5A
:1014B00000F0A7F8A4EB050481EA030E52EA033515
:1014C0004FEA013100F088804FEA03334FF0805536
:1014D00045EA131343EA12634FEA022245EA111563
:1014E00045EA10654FEA00260EF000419D4208BF14
:1014F000964244F1FD0404F5407402D25B084FEAC1
:101500003202B61A65EB03055B084FEA32024FF46C
:1015100080104FF4002CB6EB020E75EB030E22BFC9
:10152000B61A754640EA0C005B084FEA3202B6EB89
:10153000020E75EB030E22BFB61A754640EA5C0038
:101540005B084FEA3202B6EB020E75EB030E22BFC8
:10155000B61A754640EA9C005B084FEA3202B6EBC9
:10156000020E75EB030E22BFB61A754640EADC0088
:1015700055EA060E18D04FEA051545EA16754FEAEA
:1015800006164FEAC30343EA52734FEAC2025FEA08
:101590001C1CC0D111F4801F0BD141EA00014FF097
:1015A00000004FF0004CB6E711F4801F04BF014368
:1015B0000020B4F1FD0C88BFBCF5E06F3FF6AFAE84
:1015C000B5EB030C04BFB6EB020C5FEA500C50F114
:1015D000000041EB045170BD0EF0004E4EEA113197
:1015E00014EB5C04C2BFD4EB0C0541EA045170BD9E
:1015F00041F480114FF0000E013C90E645EA060EE2
:101600008DE60CEA135594EA0C0F08BF95EA0C0F0F
:101610003FF43BAF94EA0C0F0AD150EA01347FF457
:1016200034AF95EA0C0F7FF425AF104619462CE72E
:1016300095EA0C0F06D152EA03353FF4FDAE104691
:10164000194622E750EA410618BF52EA43067FF4E2
:10165000C5AE50EA41047FF40DAF52EA43057FF472
:10166000EBAE12E74FF0FF3C06E000BF4FF0010C7D
:1016700002E000BF4FF0010C4DF804CD4FEA410CE1
:101680007FEA6C5C4FEA430C18BF7FEA6C5C1BD0AE
:1016900001B050EA410C0CBF52EA430C91EA030F2F
:1016A00002BF90EA020F0020704710F1000F91EA8C
:1016B000030F58BF994208BF90422CBFD8176FEA5A
:1016C000E37040F0010070474FEA410C7FEA6C5C28
:1016D00002D150EA013C07D14FEA430C7FEA6C5C2F
:1016E000D6D152EA033CD3D05DF8040B704700BF5B
:1016F0008446104662468C461946634600E000BFA9
:1017000001B5FFF7B7FF002848BF10F1000F01BD7A
:101710004DF808EDFFF7F4FF0CBF012000205DF845
:1017200008FB00BF4DF808EDFFF7EAFF34BF0120CA
:1017300000205DF808FB00BF4DF808EDFFF7E0FF63
:1017400094BF012000205DF808FB00BF4DF808EDB4
:10175000FFF7CEFF94BF012000205DF808FB00BF1B
:101760004DF808EDFFF7C4FF34BF012000205DF8FD
:1017700008FB00BF4FEA410C7FEA6C5C02D150EAE3
:10178000013C0AD14FEA430C7FEA6C5C02D152EA79
:10179000033C02D14FF0000070474FF0010070474A
:1017A0004FEA410212F5001215D211D56FF4787389
:1017B000B3EB625212D94FEAC12343F0004343EA2C
:1017C000505311F0004F23FA02F018BF4042704707
:1017D0004FF00000704750EA013005D111F0004091
:1017E00008BF6FF0004070474FF00000704700BF27
:1017F00070B586B006460D4614464FF0FF3302938F
:101800000623019304AB009301233B22D02110480F
:1018100002F086F8B0B99DF810209DF8113043EA27
:10182000022333809DF812209DF8133043EA0223EF
:101830002B809DF814209DF8153043EA0223238065
:1018400006B070BD034803F033FE4FF0FF30F7E7FA
:10185000C00A0020F0B5000870B586B006460D46F7
:1018600014464FF0FF3302930623019304AB009319
:1018700001234322D021104802F052F8B0B99DF85C
:1018800010209DF8113043EA022333809DF8122086
:101890009DF8133043EA02232B809DF814209DF815
:1018A000153043EA0223238006B070BD034803F0DD
:1018B000FFFD4FF0FF30F7E7C00A002010B6000828
:1018C00010B586B004468DF817104FF0FF33029321
:1018D000012301930DF1170200920246D021064820
:1018E00001F06CFF08B906B010BD0246214603485E
:1018F00003F07CFDF7E700BFC00A002030B6000807
:1019000010B586B0044600238DF817304FF0FF3332
:101910000293012301930DF1170200920246D02198
:10192000064801F0FDFF18B99DF8170006B010BD7C
:1019300002462146024803F059FDF5E7C00A00209F
:101940005CB6000810B5642001F0F0F964230322AE
:10195000D021254802F060F9B8BB244803F0A8FD67
:101960007520FFF7CDFF04460146214803F03EFDF8
:10197000A4F17003DBB2012B07D9682C05D0732CBE
:1019800003D07D2C01D0982C26D11A4803F090FD6D
:10199000322001F0CBF900216B20FFF791FF3220BC
:1019A00001F0C4F918211B20FFF78AFF322001F053
:1019B000BDF900211C20FFF783FF322001F0B6F9AA
:1019C0000D4803F075FD002010BD01460B4803F0E3
:1019D0000DFD4FF0FF30F7E72146094803F006FD03
:1019E0004FF0FF30F0E700BFC00A0020B0B600089B
:1019F000C8B600082CB700084CB7000888B6000825
:101A0000E8B6000808B580220021074803F09CFCD6
:101A10000023064A1380064A13700122054906482E
:101A200003F055FC08BD00BFE8090020680A00204B
:101A3000E40900206A0A002074100020014B187885
:101A4000704700BFE409002070B5164B1B781BB32C
:101A500005460C4618B309B90E461EE0472001F0B2
:101A6000D1F9114B1E88B6B2B44201D8013CA6B2DE
:101A70000E4C324621462846FFF76AFA0021A95546
:101A8000084B1970084B19808022204603F05CFC3B
:101A9000472001F0A9F900E00026304670BD00267D
:101AA000FBE700BFE4090020680A0020E8090020E5
:101AB00058B10A4601460AB90120704708B54FF0EF
:101AC000FF33034803F0B3F908BD0120704700BF9E
:101AD0007410002008B502681E4B1B689A4200D0A3
:101AE00008BD1D4B1B7833BB1C4B1B889BB27E2B48
:101AF0001AD81A490B889BB25A1C92B20A80184A0B
:101B000012781849CA540A2A04D0144B1B889BB275
:101B10007E2B10D9114B1B889BB2124A0021D15445
:101B20000D4B01221A7006E00E4B002283F87F2035
:101B3000094B01221A70084B1B782BB1012208496E
:101B4000044803F0C4FBCBE701220549014803F038
:101B5000BEFBF3E774100020E4090020680A0020AF
:101B60006A0A0020E80900202DE9F0438BB0002428
:101B70000594069407940894099401943A4B1A6BBF
:101B800042F004021A631A6B02F004020192019AF5
:101B900002941A6B42F080021A631A6B02F0800200
:101BA0000292029A03941A6B42F001021A631A6BB2
:101BB00002F001020392039A04941A6B42F00202AB
:101BC0001A631B6B03F002030493049B274D224608
:101BD0002021284601F07AFADFF89480224602217B
:101BE000404601F073FA01224FF40041284601F00B
:101BF0006DFA4FF4004705970694079405A91D4810
:101C000001F084F91323059303230693079405A990
:101C1000284601F07BF920230593012606960794B8
:101C2000089405A9284601F071F94FF00209CDF892
:101C3000149006960794089405A9404601F066F9A9
:101C400005970694079405A9404601F05FF90597AA
:101C500006960794CDF8209005A9284601F056F97C
:101C60000BB0BDE8F08300BF003802400000024026
:101C7000000402400008024008B50B480B4B03600B
:101C80000B4B436000238360C3604FF480420261CA
:101C900043618361C361036201F0B2FC00B908BD16
:101CA00000F0B4F8FBE700BF6C0A002000540040CD
:101CB000801A060008B50B480B4B03600B4B4360C2
:101CC00000238360C3604FF48042026143618361FB
:101CD000C361036201F094FC00B908BD00F096F8FE
:101CE000FBE700BFC00A002000580040A0860100AA
:101CF0002DE9F0438BB000230593069307930893D7
:101D000009930368334A934205D0334A934228D05B
:101D10000BB0BDE8F08300250195304C236B43F0F8
:101D200002032363236B03F002030193019B4FF42F
:101D3000407305931223069301230793032308930B
:101D40000423099305A9264801F0E0F80295236CC5
:101D500043F400132364236C03F400130293029BE7
:101D6000D6E7002503951D4C236B43F00203236344
:101D7000236B03F002030393039B4FF480630593EB
:101D80004FF01209CDF818904FF00108CDF81C80E3
:101D90000327089704230993114E05A9304601F043
:101DA000B5F808230593CDF81890CDF81C80089756
:101DB0000923099305A9304601F0A8F80495236C7E
:101DC00043F480032364236C03F480030493049B93
:101DD0009EE700BF00540040005800400038024019
:101DE0000004024000B583B001904FF0FF330122A0
:101DF00001A9034803F01BF8019803B05DF804FB48
:101E00002C10002008B5FFF765FE08BD08B572B6B6
:101E10002021024801F060F9FAE700BF000002400B
:101E200000B595B03022002108A803F08DFA0023F8
:101E3000039304930593069307930193204A116C2F
:101E400041F080511164126C02F080520192019AAB
:101E500002931C4A136823F4404343F40043136085
:101E6000136803F440430293029B012308934FF449
:101E70008033099302230E934FF480020F920822BD
:101E80001092A822119212930423139308A801F030
:101E90008DFF80B90F230393022104910023059342
:101EA0004FF480530693079303A802F0E5F920B995
:101EB00015B05DF804FBFFF7A9FFFFF7A7FF00BF10
:101EC000003802400070004010B5A0B000F002FFE2
:101ED000FFF7A6FFFFF748FE00F00EFEFFF7CCFE6F
:101EE00000F076FDFFF7E6FE00F0C6FC00F01EFEF7
:101EF00000F08CFCFFF786FD20B13E4803F076FA37
:101F0000FFF784FF13213C48FFF7D2FD78B93B4827
:101F100003F0CEFA41F2883000F008FF384800F0B4
:101F200063F940B1374803F0C3FAFFF76FFF364853
:101F300003F0BEFAEEE7354803F0BAFAFFF702FD08
:101F4000B0F1FF3F40D0324803F0B2FA002000F079
:101F500001F90021084600F039FA2E4A012306CA89
:101F60002D4800F099FA264800F000F94FF47A70F5
:101F700000F0DCFEFFF762FD0028FBD0274803F0ED
:101F800035FA80216846FFF75FFD04460028F1D04E
:101F9000234803F02BFA002000F0DCF8002108466B
:101FA00000F014FA1B4A012306CA684600F074FACE
:101FB000134800F0DBF869461A4803F017FA214687
:101FC0006846FFF775FDD5E7002000F0C3F8002153
:101FD000084600F0FBF90F4A012306CA124800F038
:101FE0005BFA074800F0C2F84FF47A7000F09EFEEA
:101FF000ACE700BF70B700087CB7000890B70008D6
:102000006C0A0020E0B70008B4B7000808B8000860
:102010003CB800080000002054B8000864B800086C
:102020006CB8000870B8000830B8000870B50546F4
:1020300064291EDC0C4611F1640F1BDA6FF0630497
:10204000634226461CB2CEB1C4F16400FEF79EFB8B
:102050002449FEF7EFFB2449FEF7A0FCFEF7D6FD6E
:10206000002C15DD40F24633984214D840F2473335
:1020700006E06424002CE3DB2646E4E70023184650
:10208000D5B9002E0CDD194A12685363D06315E0F0
:1020900040F24733F4E740F2473340F24630EFE78F
:1020A000002E04DB114A12685363D06306E00F4A26
:1020B00012685063D36301E0012D00D070BD002E83
:1020C00004DD0A4A126813649063F7E7002E04DB0C
:1020D000064A126813649063F0E7044A12681064B9
:1020E0009363EBE700C051440000C842540F002046
:1020F00010B50C4601460020FFF798FF214601204D
:10210000FFF794FF10BD00B587B08DF8171064235A
:102110000293012301930DF117020092002278210E
:1021200001F04CFB10B907B05DF804FB0120FAE7A1
:1021300000B585B06423029392B20192009101230D
:102140004022782101F03AFB10B905B05DF804FB9C
:102150000120FAE708B5014600B1FF214FF4806283
:10216000014803F0F1F808BD1C0B00201C4B5B7903
:102170000BB90120704710B504462121FFF7C3FFBA
:1021800008B1012010BD00212046FFF7BCFF08B1B7
:102190000120F7E77F212046FFF7B5FF08B10120B6
:1021A000F0E722212046FFF7AEFF08B10120E9E762
:1021B00000212046FFF7A7FF08B10120E2E7072131
:1021C0002046FFF7A0FF08B10120DBE74FF4806253
:1021D00004492046FFF7ACFF0028D3D00120D1E707
:1021E000140B00201C0B002010B5044664230322AE
:1021F000782101F011FD08B1012010BD642000F02C
:1022000095FDAE212046FFF77EFF08B10120F4E7DF
:10221000D5212046FFF777FF08B10120EDE78021A7
:102220002046FFF770FF08B10120E6E7A82120460D
:10223000FFF769FF08B10120DFE73F212046FFF7E4
:1022400062FF08B10120D8E7D3212046FFF75BFFEA
:1022500008B10120D1E700212046FFF754FF08B163
:102260000120CAE740212046FFF74DFF08B10120B9
:10227000C3E78D212046FFF746FF08B10120BCE7E8
:1022800014212046FFF73FFF08B10120B5E72021C8
:102290002046FFF738FF08B10120AEE700212046B5
:1022A000FFF731FF08B10120A7E7A1212046FFF782
:1022B0002AFF08B10120A0E7C8212046FFF723FF2D
:1022C00008B1012099E7DA212046FFF71CFF08B189
:1022D000012092E712212046FFF715FF08B10120E7
:1022E0008BE781212046FFF70EFF08B1012084E72C
:1022F000CF212046FFF707FF08B101207DE7D92154
:102300002046FFF700FF08B1012076E7F1212046C3
:10231000FFF7F9FE08B101206FE7DB212046FFF748
:10232000F2FE08B1012068E740212046FFF7EBFEEE
:1023300008B1012061E7A4212046FFF7E4FE08B1BF
:1023400001205AE7A6212046FFF7DDFE08B1012053
:1023500053E7FFF7FFFE2046FFF708FFAF212046B7
:10236000FFF7D1FE38B9054B00221A805A800121AF
:1023700059711A7141E701203FE700BF140B00209B
:102380007F2819D83F2917D80E4B1B7913B1B2FA01
:1023900082F25209CB08DB019BB2184480B201F0F3
:1023A0000701012303FA01F1CBB2012A05D0064A45
:1023B000135C23EA010111547047034A115C0B437B
:1023C00013547047140B00201C0B00207F2828BFDB
:1023D0007F20034B18803F2928BF3F215980704739
:1023E000140B00202DE9F04F85B0019004AC04E9F6
:1023F00006009846A0F12003DBB25E2B01D9202312
:102400000193244B1B889DF808904B447F2B3DDCA7
:10241000204B5B889DF8096033443F2B38DCDDF8A6
:102420000CB0019BA3F1200A0AFB09FA00251CE06D
:10243000B8FA88F25209FFF7A3FF0134072C13D82A
:10244000A642FAD9134B188810FA85F080B2598841
:1024500011FA84F189B247FA04F313F0010FE7D0BF
:102460004246FFF78DFFE8E70135A94505D90AEB9C
:1024700005031BF803700024E0E7064B1A8891441B
:10248000A3F80090019805B0BDE8F08F0020FAE7AE
:102490000020F8E7140B002070B582B0044602A8B3
:1024A00000E906001D46002616E0124900230B80B5
:1024B0009DF801204B881A4492B24A803F2A0AD9DB
:1024C00000224A8007E02B4602AA12E90600FFF725
:1024D00089FF58B106460134207838B10A28E4D083
:1024E0000D28F0D1034B00221A80F4E7304602B0E9
:1024F00070BD00BF140B002082B0002100910B4B77
:102500005A6C42F480425A645A6C02F4804200923F
:10251000009A01911A6C42F080521A641B6C03F00D
:1025200080530193019B02B0704700BF0038024006
:10253000FEE7FEE7FEE7FEE7FEE7704770477047FD
:1025400008B500F0E1FB08BD2DE9F843604802F052
:1025500020F8604FDFF88091DFF880813A464946E5
:102560004046FFF745F95E4C5E4D5F4E22462946D8
:102570003046FFF771F936885C4B1B88F61A36B285
:102580002D885B4B1B88ED1A2DB22488594B1B8874
:10259000E41A24B2B8F8000000B2FEF7F7F84FF0E2
:1025A0006251FEF747F98046B9F80030388800B22A
:1025B000FEF7ECF84FF06251FEF73CF90746304663
:1025C000FEF7E4F84C49FEF7E9F94C4B1860284651
:1025D000FEF7DCF84849FEF7E1F9494B1860204660
:1025E000FEF7D4F84449FEF7D9F9464B18600021AC
:1025F0003846FEF7B3FA00B1434F3946404608F07B
:1026000043FEFDF761FF30A3D3E90023FEF718FE78
:10261000FDF7B2FF3D4C20603D4B19682068FDF787
:10262000FFFF2060354F38683A49FEF703F93A4D0D
:102630002968FDF7F7FF3949FEF7FCF806462068E0
:102640003749FEF7F7F801463046FDF7EBFF286003
:10265000344B18682968FDF7E3FF0146324B1868D0
:10266000FEF7E8F80446314B18683968FEF7E2F8DF
:1026700001462046FDF7D6FFFEF7A2FA04B2642C0D
:1026800005DC14F1640F03DA6FF0630400E06424E6
:10269000214B186820F000402549FEF787FA70B1F9
:1026A0000023244A1380244A1380224B1888224B8B
:1026B000198809B200B2FFF71BFDBDE8F8831D4B76
:1026C0001C801D4B1C80F0E7F8C1631ADCA54C4050
:1026D000E40F0020280F0020260F0020240F0020E8
:1026E000400F0020380F0020300F00202A0F00205C
:1026F000320F00203A0F0020333383412C0F00208B
:10270000340F00203C0F00206F12833A1C0F002072
:10271000200F00200AD7233C480F002048E17A3FD1
:1027200000D7A33C4C0F00200C0000200800002024
:102730000000F041420F0020440F002008B502487D
:1027400002F066FC08BD00BF741000200120704735
:1027500008B502F0CFFD162303604FF0FF3008BD2F
:1027600008B54FF0FF31FFF7F3FFFEE770B50C46F9
:102770001646002506E0AFF30080214601F8010B64
:1027800001350C46B542F6DB304670BD70B50C46DF
:102790001646002504E014F8010BFFF723FB013572
:1027A000B542F8DB304670BD4FF0FF3070474FF454
:1027B00000534B6000207047012070470020704795
:1027C00010B503460C4A0D490D48006840B10C484D
:1027D00000680344521A934206D8094A136010BD98
:1027E0000748084C0460F2E702F084FD0C23036004
:1027F0004FF0FF30F3E700BF00800120000400002D
:10280000500F0020081100207047000000B587B06D
:1028100000230293039304930593009301931448B8
:10282000144A0260436083604FF6FF72C260036126
:10283000836101F0B3FF90B94FF48053029302A972
:102840000B4802F0AFF868B9002300930193694682
:10285000074802F027F940B907B05DF804FBFFF71D
:10286000D5FAE9E7FFF7D2FAEEE7FFF7CFFAF3E799
:102870009C0F00200004004000B587B000230293A5
:10288000039304930593009301931548154A02603E
:1028900053224260836042F20F72C2600361802360
:1028A000836101F07BFF90B94FF48053029302A93A
:1028B0000B4802F077F868B900230093019369464A
:1028C000074802F0EFF840B907B05DF804FBFFF7E6
:1028D0009DFAE9E7FFF79AFAEEE7FFF797FAF3E7D1
:1028E000E40F0020000C004000B585B003681D4ACD
:1028F000934208D01C4A934212D01C4A93421CD0E7
:1029000005B05DF804FB00230193194B5A6C42F0AB
:1029100001025A645B6C03F001030193019BEFE732
:1029200000230293124B1A6C42F002021A641B6CD1
:1029300003F002030293029BE2E7002103910C4B98
:102940001A6C42F008021A641B6C03F0080303932C
:10295000039B0A46322000F00FFA322000F044FABE
:10296000CEE700BF0000014000040040000C004022
:102970000038024000B587B000230193029303930F
:102980000493059302680F4B9A4202D007B05DF89A
:1029900004FB002300930C4B1A6B42F001021A63F4
:1029A0001B6B03F001030093009B4FF470630193D2
:1029B000022302930123059301A9044800F0A6FA1B
:1029C000E4E700BF00000140003802400000024080
:1029D00010B596B000241294139414941594109486
:1029E000119409940A940B940C940D940E940F94E2
:1029F0002022214601A802F0A7FC3D483D4B036080
:102A000053234360846040F24733C36004614461F0
:102A10008023836101F0C2FE00284DD14FF4805322
:102A2000129312A9324801F0BDFF002847D1304867
:102A300001F0E0FE002845D100231093119310A966
:102A40002B4802F02FF800283FD160230993002281
:102A50000A920B920C920D920E920F9209A92448A1
:102A600001F026FF002833D1042209A9204801F0F3
:102A70001FFF80BB082209A91D4801F019FF68BB90
:102A80000C2209A91A4801F013FF50BB002301933F
:102A900002930393049305934FF4005306934FF46A
:102AA0008043089301A9124802F03AF8E0B91048AF
:102AB000FFF760FF16B010BDFFF7A8F9AEE7FFF70C
:102AC000A5F9B4E7FFF7A2F9B6E7FFF79FF9BCE76E
:102AD000FFF79CF9C8E7FFF799F9CBE7FFF796F9FD
:102AE000CEE7FFF793F9D1E7FFF790F9DFE700BFF3
:102AF000540F00200000014008B50A480A4B03604B
:102B00004FF4E133436000238360C36003610C2210
:102B100042618361C36102F05AF900B908BDFFF751
:102B200075F9FBE72C1000200044004008B50A4866
:102B30000A4B03604FF41653436000238360C36065
:102B400003610C2242618361C36102F040F900B964
:102B500008BDFFF75BF9FBE774100020001401408B
:102B600010B58AB000230593069307930893099341
:102B700003682B4A934204D02A4A934224D00AB0D5
:102B800010BD00210191284B1A6C42F400321A64E6
:102B90001A6C02F400320192019A02911A6B42F00F
:102BA00001021A631B6B03F001030293029B0C23C7
:102BB000059302230693032308930723099305A98A
:102BC0001A4800F0A3F9DAE700240394164B5A6C74
:102BD00042F020025A645A6C02F020020392039AD7
:102BE00004941A6B42F004021A631B6B03F0040393
:102BF0000493049BC02305930223069303230893A5
:102C00000823099305A90A4800F080F9224601210A
:102C1000472000F0B1F8472000F0E6F8AFE700BF2A
:102C2000004400400014014000380240000002400F
:102C300000080240DFF834D0FFF7E6FD0C480D49EC
:102C40000D4A002302E0D458C4500433C4188C4207
:102C5000F9D30A4A0A4C002301E013600432A2426D
:102C6000FBD302F04DFBFFF72FF9704700800120E6
:102C700000000020C80900207CBF0008C80900200F
:102C800008110020FEE7000010B504460E4B18782E
:102C90004FF47A73B3FBF0F30C4A1068B0FBF3F017
:102CA00000F0C2F868B90F2C01D901200AE0002217
:102CB00021464FF0FF3000F05FF8054B1C6000200C
:102CC00000E0012010BD00BF140000201000002013
:102CD0001800002008B50B4B1A6842F400721A6005
:102CE0001A6842F480621A601A6842F480721A60AC
:102CF000032000F02FF80020FFF7C6FFFFF7FCFBD2
:102D0000002008BD003C0240034A1168034B1B78B9
:102D10000B441360704700BFBC100020140000205B
:102D2000014B1868704700BFBC10002038B504463E
:102D3000FFF7F6FF0546B4F1FF3F02D0044B1B78C6
:102D40001C44FFF7EDFF401BA042FAD338BD00BF83
:102D500014000020074AD36823F4E0631B041B0C13
:102D6000000200F4E060034343F0BF6343F4003328
:102D7000D360704700ED00E000B5194BDB68C3F38A
:102D80000223C3F1070CBCF1040F28BF4FF0040C61
:102D900003F1040EBEF1060F18D9033B4FF0FF3EBE
:102DA0000EFA0CFC21EA0C0199400EFA03F322EA18
:102DB0000303194300280BDB0901C9B200F160408D
:102DC00000F5614080F800135DF804FB0023E5E79F
:102DD00000F00F000901C9B2024B1954F4E700BF1B
:102DE00000ED00E014ED00E0002807DB00F01F021A
:102DF000400901239340024A42F82030704700BF47
:102E000000E100E000280CDB00F01F024009012374
:102E100093402030034A42F82030BFF34F8FBFF376
:102E20006F8F704700E100E00138B0F1807F0BD276
:102E30004FF0E0235861054AF02182F8231000206A
:102E4000986107221A6170470120704700ED00E089
:102E500070B50446866DFFF763FF94F83530DBB23A
:102E6000022B06D080236365002384F834300120D0
:102E700070BD05462268136823F0160313602268AC
:102E8000536923F080035361236CE3B12268136814
:102E900023F0080313602268136823F00103136012
:102EA00023681B6813F0010F11D0FFF739FF431B94
:102EB000052BF5D920236365032084F83500002312
:102EC00084F83430D4E7A36C002BDFD1E3E7E26D64
:102ED0003F239340B360012384F83530002084F809
:102EE0003400C5E790F83530DBB2022B03D08023E5
:102EF000436501207047052380F835300268136868
:102F000023F00103136000207047000000230F2B03
:102F100000F2D28070B582B060E085685E00032464
:102F2000B44025EA0405CC68B4402C43846045686D
:102F300025EA02054C68C4F300129A402A43426015
:102F40005AE0DC08083450F8246003F007029500CA
:102F50000F22AA4026EA020E0A69AA4042EA0E029D
:102F600040F824205CE0042200E0002202FA0EF285
:102F70002A430234514D45F82420514A94686FEA9F
:102F80000C0224EA0C054E6816F4801F01D04CEAAE
:102F900004054B4CA560E46802EA04054E6816F48B
:102FA000001F01D04CEA0405454CE560646802EA64
:102FB00004054E6816F4003F01D04CEA0405404C6D
:102FC0006560246822404D6815F4803F01D04CEACA
:102FD00004023B4C226001330F2B6BD801229A4034
:102FE0000C6804EA020C32EA0404F4D14C6804F0E0
:102FF0000304013C012C90D94A6802F00302032A21
:1030000009D0C4685D000322AA4024EA02048A6849
:10301000AA402243C2604A6802F00302022A90D00A
:1030200004684FEA430E032202FA0EF224EA020475
:103030004A6802F0030202FA0EF2224302604A6872
:1030400012F4403FC7D0002201921E4A546C44F44F
:1030500080445464526C02F480420192019A9C08AC
:10306000A51C164A52F8255003F003024FEA820EBF
:103070000F2202FA0EF225EA0205134A90423FF4AB
:1030800074AF02F5806290420ED002F580629042E9
:103090000CD002F5806290420AD002F58062904224
:1030A0003FF461AF072261E701225FE702225DE79B
:1030B00003225BE702B070BD704700BF00380140DB
:1030C000003C014000380240000002400AB181612A
:1030D0007047090481617047436901EA030221EAEC
:1030E000030141EA02418161704703685A6912F4A1
:1030F000806F01D1002070476FF480625A61002315
:103100000363202280F83D2080F83E30026C42F0BC
:103110000402026480F83C30012070472DE9F04140
:1031200006460C46174698463BE0FFF7F9FD069B1E
:10313000C01A404502D8B8F1000F32D1012D18D085
:1031400033689B6924EA03039BB2B3FA83F35B09F8
:103150009F4226D100233363202286F83D2086F843
:103160003E30326C42F02002326486F83C3001205E
:1031700027E033685B6924EA03039BB2B3FA83F365
:103180005B09E5E733685B6924EA030C1FFA8CFCF2
:10319000BCFA8CFC4FEA5C1C674511D1B8F1FF3FCB
:1031A000C3D1C4F30745012DECD033689B6924EAF1
:1031B000030C1FFA8CFCBCFA8CFC4FEA5C1CEBE79E
:1031C0000020BDE8F0812DE9F84305460E46904603
:1031D000994653E01A6842F400721A602B686FF443
:1031E00080625A6100232B63202285F83D2085F8F8
:1031F0003E302A6C42F004022A6485F83C300120FB
:103200004AE0FFF78DFDA0EB0900404502D8B8F178
:10321000000F33D1012F17D02B689B6926EA0303D7
:103220009BB2003B18BF012343B300232B63202232
:1032300085F83D2085F83E302A6C42F020022A6451
:1032400085F83C30012027E02B685B6926EA030300
:103250009BB2003B18BF0123E6E72B689C6926EA76
:103260000404A4B2003C18BF0124A4B12B685A691D
:1032700012F4806FAED1B8F1FF3FC2D1C6F3074759
:10328000012FEAD12B685C6926EA0404A4B2003C51
:1032900018BF0124E9E70020BDE8F88370B50446B3
:1032A0000D46164623685B6913F0800F21D1204636
:1032B000FFF71BFFF8B9B5F1FF3FF3D0FFF730FD83
:1032C000801BA84201D8002DECD123685B6913F064
:1032D000800FE7D100232363202284F83D2084F867
:1032E0003E30226C42F02002226484F83C300120FF
:1032F00000E0002070BD0120FCE700002DE9F04354
:1033000085B004460D4691461F46DDF830800D9E7F
:103310000368196841F480711960009643460022E1
:103320004FF00111FFF7FAFE60B9236805F0FE05C2
:103330001D613346424626492046FFF744FF68B1E7
:10334000012008E023681B6813F4807F02D04FF44B
:1033500000732364032005B0BDE8F08300230393CA
:1033600023685A6903929B690393039B3246414643
:103370002046FFF793FF30B9012F0FD123685FFA82
:1033800089F61E61E7E7236C042B01D00120E2E7F8
:103390002268136843F400731360F7E723684FEA69
:1033A00019221A61324641462046FFF777FF20B9BD
:1033B00023685FFA89F61E61CDE7236C042B01D0E8
:1033C0000120C8E72268136843F400731360F7E72D
:1033D000020001002DE9F04784B004460D46164670
:1033E00099460C9FDDF834800268136843F48063CB
:1033F00013600368196841F480711960CDF800808A
:103400003B4600224FF00111FFF788FE70B95FFACA
:1034100085FA236805F0FE051D6143463A46414999
:103420002046FFF7D0FE68B1012008E023681B6842
:1034300013F4807F02D04FF400732364032004B0A0
:10344000BDE8F0870023039323685A6903929B69C0
:103450000393039B424639462046FFF71FFF80B97E
:10346000B9F1010F18D12368F6B21E614246394600
:103470002046FFF713FF68B3236C042B24D00120F0
:10348000DDE7236C042B01D00120D8E72268136804
:1034900043F400731360F7E72368320A1A61424667
:1034A00039462046FFF7FAFE18B92368F6B21E61C6
:1034B000DCE7236C042B01D00120C0E722681368ED
:1034C00043F400731360F7E72268136843F4007352
:1034D0001360D4E72268136843F480731360CDF857
:1034E00000803B4600224FF001112046FFF716FEF8
:1034F00068B922684AF00103136143463A46094914
:103500002046FFF760FE002899D0012097E7236846
:103510001B6813F4807F02D04FF4007323640320F0
:103520008DE700BF0200010070B504460D46164647
:1035300023685B6913F0040F21D12046FFF7D5FD06
:10354000F8B9B5F1FF3FF3D0FFF7EAFB801BA842C3
:1035500001D8002DECD123685B6913F0040FE7D18B
:1035600000232363202284F83D2084F83E30226C1F
:1035700042F02002226484F83C30012000E0002068
:1035800070BD0120FCE770B504460D46164614E0F8
:103590006FF010025A6100232363202284F83D203B
:1035A00084F83E30226C226484F83C30012025E00F
:1035B00023685B6913F0400F10D02368586910F03E
:1035C000400F1AD1586910F0100FE1D1FFF7A8FB96
:1035D000801BA842ECD8002DEFD1E9E7002323633C
:1035E000202284F83D2084F83E30226C42F02002F4
:1035F000226484F83C30012000E0002070BD00000F
:10360000002800F0CC8070B5044690F83D30002BC7
:1036100077D0242384F83D302268136823F0010317
:1036200013602268136843F4004313602268136830
:1036300023F40043136000F0D5FE62685A4B9A42AF
:1036400064D85A4B98428CBF00230123002B40F0D2
:10365000A8805749A1FB00318B0C25686A6822F0CD
:103660003F0242EA91426A6021680A6A22F03F0200
:1036700066684D4DAE424FD8013313430B6221684B
:10368000CA6922F44F4222F0FF026668464B9E420E
:103690004CD8431E7600B3FBF6F3013340F6FC70C2
:1036A000034278D0C3F30B031343CB6121680B684B
:1036B00023F0C003E269206A024313430B602168D0
:1036C0008B6823F4034323F0FF032269E06802437D
:1036D00013438B602168CB6823F0FF036269A06904
:1036E00002431343CB602268136843F00103136065
:1036F00000202064202384F83D30206384F83E00BD
:1037000070BD80F83C30FEF7F3FA82E7294B98420F
:103710008CBF0023012399E74FF4967505FB03F353
:10372000254DA5FB03539B090133A6E7A368BBB94D
:10373000451E06EB460CB5FBFCF50135C5F30B0544
:10374000B5FA85F56D0945BBC3B9013806EB4603EB
:10375000B0FBF3F30133C3F30B0343F40043A3E7DC
:10376000451E06EB860C0CEB8C0CB5FBFCF501350D
:10377000C5F30B05B5FA85F56D09E4E7013806EBED
:10378000860303EB8303B0FBF3F30133C3F30B03B3
:1037900043F4404388E7042386E7012384E70120BC
:1037A00070470120ACE700BFA08601007F841E00A7
:1037B00083DE1B43FF083D00D34D62102DE9F0432B
:1037C00083B004460F46904699460C9EFFF7A8FA30
:1037D000054694F83D00C0B2202803D0022003B073
:1037E000BDE8F0830095192301224B492046FFF7DD
:1037F00095FC002840F0898094F83C30012B00F0C3
:103800008680012384F83C3023681A6812F0010F87
:1038100003D11A6842F001021A602268136823F487
:1038200000631360212384F83D30402384F83E3048
:10383000002323640A9B6362BDF82C306385638D8B
:103840002385364BE362019500964B464246394646
:103850002046FFF753FD00285BD1238D002B35D088
:103860002A4631462046FFF719FD20BB626A2368CD
:1038700012781A61626A531C6362218D013989B220
:103880002185638D9BB2013B9BB263852368586998
:1038900010F0040FE1D00029DFD052781A61636A7A
:1038A00001336362238D013B2385638D9BB2013B12
:1038B0009BB26385D1E7236C042B01D001208EE7F6
:1038C0002268136843F400731360F7E72A46314611
:1038D0002046FFF729FE50B1236C042B01D00120B4
:1038E0007DE72268136843F400731360F7E72268EA
:1038F000136843F400731360202384F83D300023E1
:1039000084F83E3084F83C3069E7022067E7022003
:1039100065E7012063E700BF020010000000FFFF21
:103920002DE9F04387B004460F4690469946109E15
:10393000FFF7F6F9054694F83D00C0B2202804D000
:103940000227384607B0BDE8F0830095192301220D
:1039500088492046FFF7E2FB002840F04D8194F8AB
:103960003C30012B00F04A81012384F83C3023686D
:103970001A6812F0010F03D11A6842F001021A60AE
:103980002268136823F400631360222384F83D3017
:10399000402384F83E30002323640E9B6362BDF80D
:1039A0003C306385638D2385734BE36201950096FC
:1039B0004B46424639462046FFF70CFD0746002895
:1039C00040F01E81238D5BB9029323685A690292ED
:1039D0009A690292029A1A6842F400721A6075E0BB
:1039E000012B0AD0022B1AD00023059323685A69B1
:1039F00005929B690593059B68E02268136823F490
:103A0000806313600023039323685A6903929A69C1
:103A10000392039A1A6842F400721A6056E0226810
:103A2000136823F4806313602268136843F400630F
:103A300013600023049323685A6904929B690493DA
:103A4000049B43E02A4631462046FFF79CFD0028B0
:103A500040F0D88023681A69636A1A70636A013378
:103A60006362238D013B2385638D9BB2013B9BB237
:103A700063852BE000953346002240492046FFF73E
:103A80004DFB002840F0C0802268136843F40073A7
:103A9000136023681A69636A1A70626A531C63624E
:103AA000238D013B2385638D9BB2013B9BB26385D4
:103AB00023681B695370636A01336362238D013B82
:103AC0002385638D9BB2013B9BB26385238D002BC5
:103AD00000F08980032B53D8012BB3D0022BC9D01F
:103AE00000953346002225492046FFF717FB0028A2
:103AF00040F08C802268136823F48063136023688D
:103B00001A69636A1A70636A01336362238D013B29
:103B10002385638D9BB2013B9BB263850095334641
:103B2000002216492046FFF7F9FA002870D12268D2
:103B3000136843F40073136023681A69636A1A7088
:103B4000626A531C6362238D013B2385638D9BB2A4
:103B5000013B9BB2638523681B695370636A013321
:103B60006362238D013B2385638D9BB2013B9BB236
:103B70006385ABE7020010000000FFFF04000100B6
:103B80002A4631462046FFF7FEFC002842D1236832
:103B90001A69636A1A70636A01336362228D013A9B
:103BA00092B22285638D9BB2013B9BB263852368F1
:103BB000596911F0040F89D0032A0FD023681A69BC
:103BC000636A1A70636A01336362238D013B238544
:103BD000638D9BB2013B9BB2638577E71A6822F441
:103BE00080621A60EAE7202384F83D30002384F8DD
:103BF0003E3084F83C30A4E60227A2E60227A0E685
:103C000001279EE601279CE601279AE6012798E610
:103C1000012796E6012794E62DE9F04385B0044696
:103C2000884691461D46FFF77BF894F83D30DBB29D
:103C3000202B03D0022005B0BDE8F083064600909B
:103C40001923012257492046FFF768FA002840F05F
:103C5000A08094F83C30012B00F09D80012384F873
:103C60003C3023681A6812F0010F03D11A6842F041
:103C700001021A602268136823F40063136024238E
:103C800084F83D3000272764474BE36240E0236817
:103C90001B6813F4807F02D04FF400732364032069
:103CA000C9E7A02384F83D3022685369C3F3400379
:103CB0005269C2F3802294F83DC05FFA8CFCBCF1DB
:103CC000A00F09D043B93AB9FFF72AF8801BA842E0
:103CD000E7D8002DE8D1E4E7202384F83D302368BD
:103CE0005A6912F0020F31D11A6842F400721A6058
:103CF00023686FF480625A610096192301222949D2
:103D00002046FFF70BFA002849D101374F4538D23A
:103D10002268136843F48073136000962B460022D8
:103D20004FF001112046FFF7F9F90028AFD12368C1
:103D300008F0FE021A61FEF7F3FF06462268536997
:103D4000C3F340035269C2F38022B4E71A6842F415
:103D500000721A600023039323685A6903929B69D7
:103D60000393039B0096192301220E492046FFF777
:103D7000D5F990B9202384F83D30002384F83C30F5
:103D800059E7202384F83D30002384F83C3001209B
:103D900051E702204FE702204DE701204BE70120C9
:103DA00049E700BF020010000000FFFF002800F0FC
:103DB000E08170B582B00446036813F0010F3BD078
:103DC0009F4B9B6803F00C03042B2CD09C4B9B68EF
:103DD00003F00C03082B21D06368B3F5803F4FD06C
:103DE000B3F5A02F52D0964B1A6822F480321A6095
:103DF0001A6822F480221A606368002B50D0FEF704
:103E00008FFF05468E4B1B6813F4003F14D1FEF75D
:103E100087FF401B6428F5D90320B1E1884B5B681C
:103E200013F4800FD8D0864B1B6813F4003F03D0E7
:103E30006368002B00F09F81236813F0020F54D0B9
:103E40007F4B9B6813F00C0F3ED07D4B9B6803F0BB
:103E50000C03082B33D0E368002B68D0794B012288
:103E60001A60FEF75DFF0546754B1B6813F0020FE5
:103E700054D1FEF755FF401B0228F5D903207FE1FE
:103E80006F4A136843F480331360B5E76C4B1A68CC
:103E900042F480221A601A6842F480321A60ABE75A
:103EA000FEF73EFF0546664B1B6813F4003FC3D088
:103EB000FEF736FF401B6428F5D9032060E1604B14
:103EC0005B6813F4800FC6D15D4B1B6813F0020FC3
:103ED00003D0E368012B40F05081594A136823F066
:103EE000F803216943EAC1031360236813F0080F44
:103EF00042D063696BB3534B0122C3F8802EFEF7A7
:103F00000FFF05464E4B5B6F13F0020F34D1FEF7E7
:103F100007FF401B0228F5D9032031E1484A136806
:103F200023F0F803216943EAC1031360DDE7454B41
:103F300000221A60FEF7F4FE0546414B1B6813F0A1
:103F4000020FD2D0FEF7ECFE401B0228F5D9032069
:103F500016E13C4B0022C3F8802EFEF7E1FE054639
:103F6000374B5B6F13F0020F06D0FEF7D9FE401BF4
:103F70000228F5D9032003E1236813F0040F77D05A
:103F80002F4B1B6C13F0805F33D1002301932C4B1C
:103F90001A6C42F080521A641B6C03F08053019338
:103FA000019B0125284B1B6813F4807F23D0A36855
:103FB000012B34D0052B38D0214B1A6F22F001028F
:103FC0001A671A6F22F004021A67A368002B3DD00B
:103FD000FEF7A6FE06461A4B1B6F13F0020F46D1E2
:103FE000FEF79EFE801B41F288339842F3D90320EE
:103FF000C6E00025D6E7144A136843F480731360C3
:10400000FEF78EFE0646104B1B6813F4807FCED160
:10401000FEF786FE801B0228F5D90320B0E0084A8F
:10402000136F43F001031367CFE7054B1A6F42F09C
:1040300004021A671A6F42F001021A67C5E700BF4F
:10404000003802400000474200700040FEF768FE62
:104050000646524B1B6F13F0020F08D0FEF760FEAE
:10406000801B41F288339842F3D9032088E0EDB9F0
:10407000A369002B00F08380484A926802F00C028A
:10408000082A51D0022B17D0454B00221A66FEF7A2
:1040900047FE0446414B1B6813F0007F42D0FEF7F9
:1040A0003FFE001B0228F5D9032069E03B4A136C50
:1040B00023F080531364DBE7394B00221A66FEF7C6
:1040C0002FFE0546354B1B6813F0007F06D0FEF728
:1040D00027FE401B0228F5D9032051E0E369226A3C
:1040E0001343626A43EA8213A26A5208013A43EA1E
:1040F0000243E26A43EA0263284A5360284B0122E2
:104100001A66FEF70DFE0446244B1B6813F0007F71
:1041100006D1FEF705FE001B0228F5D903202FE08B
:1041200000202DE000202BE0012B2BD01B4B5B68E7
:1041300003F48001E269914226D103F03F02216A33
:104140008A4223D1616A47F6C0721A40B2EB811FDE
:104150001ED103F44031A26A5208013AB1EB024F7A
:1041600018D103F07063E26AB3EB026F14D1002040
:1041700006E001207047012002E0012000E000205D
:1041800002B070BD0120FBE70120F9E70120F7E74D
:104190000120F5E70120F3E70120F1E700380240B4
:1041A0000000474208B5314B9B6803F00C03042B19
:1041B00057D0082B57D12D4B5A6802F03F025B684D
:1041C00013F4800F2AD0294B5968C1F3881C4FEA99
:1041D0004C11B1EB0C006EEB0E0E4FEA8E1343EA5E
:1041E00090638101091A63EB0E03DB0043EA51730C
:1041F000C90011EB0C0C43F10003590200234FEAF4
:104200004C2041EADC51FCF721FD184B5B68C3F3FD
:10421000014301335B00B0FBF3F025E0134B596819
:10422000C1F3881C4FEA4C11B1EB0C006EEB0E0E83
:104230004FEA8E1343EA90638101091A63EB0E0380
:10424000DB0043EA5173C90011EB0C0C43F100038E
:10425000990200234FEA8C2041EA9C51FCF7F6FCBE
:10426000D3E7034800E0034808BD00BF0038024020
:1042700000127A000024F400002800F09B8070B542
:104280000D4604464F4B1B6803F007038B4208D2D0
:10429000CBB24C4A1370136803F007038B4240F013
:1042A0008B80236813F0020F17D013F0040F04D093
:1042B000454A936843F4E0539360236813F0080F72
:1042C00004D0414A936843F4604393603E4A936844
:1042D00023F0F003A1680B439360236813F0010FF0
:1042E00032D06368012B21D09A1E012A25D9364A83
:1042F000126812F0020F61D033498A6822F003027B
:1043000013438B60FEF70CFD06462F4B9B6803F0B2
:104310000C036268B3EB820F16D0FEF701FD801B21
:1043200041F288339842F0D9032042E0264A1268CD
:1043300012F4003FE0D101203BE0234A126812F062
:10434000007FD9D1012034E01E4B1B6803F0070326
:10435000AB4207D9EAB21B4B1A701B6803F0070384
:10436000AB422DD1236813F0040F06D0164A936890
:1043700023F4E053E1680B439360236813F0080FC4
:1043800007D0114A936823F46043216943EAC103CB
:104390009360FFF707FF0C4B9B68C3F303130B4AB3
:1043A000D35CD8400A4B18600A4B1868FEF76CFCC7
:1043B000002070BD012070470120FAE70120F8E7D6
:1043C0000120F6E7003C0240003802401CBB000818
:1043D0001000002018000020014B1868704700BF33
:1043E0001000002008B5FFF7F7FF044B9B68C3F3EC
:1043F0008223034AD35CD84008BD00BF0038024086
:104400002CBB000808B5FFF7E7FF044B9B68C3F31C
:104410004233034AD35CD84008BD00BF0038024095
:104420002CBB000870B4036A026A22F00102026227
:104430004668826922F073020C6844EA020523F0A0
:1044400002028B6813430D4CA04209D00B4CA042D2
:104450000DD0466085614A684263036270BC704754
:1044600023F00803CA68134323F00403EEE726F49D
:1044700040764A6932438E691643EAE700000140FC
:1044800030B4036A026A22F4807202624568C2692B
:1044900022F073020C68224323F400738C6843EA11
:1044A00004230F4CA04209D00D4CA0420ED0456011
:1044B000C2614A68C263036230BC704723F4006380
:1044C000CC6843EA042323F48063EDE725F44055E8
:1044D0004C6945EA04158C6945EA0415E7E700BF15
:1044E0000000014030B4036A026A22F48052026282
:1044F0004468C26922F4E6420D6842EA052223F4C8
:1045000000538D6843EA0533074DA84206D0446046
:10451000C2614A680264036230BC704724F480447C
:104520004D6944EA8514F2E70000014010B4036AC3
:10453000046A24F001040462846924F0F00C4CEA5B
:10454000021223F00A030B438261036210BC70471E
:1045500010B4036A046A24F010040462846924F429
:10456000704C4CEA023223F0A00343EA011382614B
:10457000036210BC7047836823F070030B4343F061
:1045800007038360704770477047704770477047F4
:10459000704770B504460368DE681D6915F0020FA8
:1045A00010D016F0020F0DD06FF002021A61012335
:1045B000037703689B6913F0030F5ED0FFF7E6FFF4
:1045C0000023237715F0040F12D016F0040F0FD03C
:1045D00023686FF004021A610223237723689B6922
:1045E00013F4407F4FD02046FFF7D0FF00232377FE
:1045F00015F0080F12D016F0080F0FD023686FF0D7
:1046000008021A61042323772368DB6913F0030F80
:1046100040D02046FFF7BAFF0023237715F0100F94
:1046200012D016F0100F0FD023686FF010021A612D
:10463000082323772368DB6913F4407F31D02046B9
:10464000FFF7A4FF0023237715F0010F02D016F027
:10465000010F2DD115F0800F02D016F0800F2FD151
:1046600015F0400F02D016F0400F31D115F0200F99
:1046700002D016F0200F33D170BDFFF786FF204621
:10468000FFF785FF9CE72046FFF77FFF2046FFF7F7
:104690007EFFABE72046FFF778FF2046FFF777FF66
:1046A000BAE72046FFF771FF2046FFF770FFC9E722
:1046B00023686FF001021A612046FFF765FFC9E722
:1046C00023686FF080021A61204600F053FAC7E7B2
:1046D00023686FF040021A612046FFF759FFC5E7D3
:1046E00023686FF020021A61204600F042FAC3E707
:1046F0000368294A90420ED0B0F1804F0BD0A2F54A
:104700007C42904207D002F58062904203D002F5CD
:104710008062904203D123F070034A6813431E4A1B
:1047200090421AD0B0F1804F17D0A2F57C4290424F
:1047300013D002F5806290420FD002F58062904261
:104740000BD002F59A32904207D002F58062904277
:1047500003D002F58062904203D123F44073CA680B
:10476000134323F080034A69134303608B68C362D9
:104770000B688362084B98420AD0012343610369A6
:1047800013F0010F03D0036923F0010303617047A5
:104790000B690363F1E700BF0000014040B310B5AF
:1047A000044690F83D30F3B1022384F83D302146B1
:1047B00051F8040BFFF79CFF012384F8463084F87E
:1047C0003E3084F83F3084F8403084F8413084F83B
:1047D000423084F8433084F8443084F8453084F81B
:1047E0003D30002010BD80F83C30FEF77DF8DBE75F
:1047F0000120704740B310B5044690F83D30F3B146
:10480000022384F83D30214651F8040BFFF770FF76
:10481000012384F8463084F83E3084F83F3084F831
:10482000403084F8413084F8423084F8433084F8D2
:10483000443084F8453084F83D30002010BD80F8C5
:104840003C30FFF7A0FEDBE70120704730B4036A7D
:10485000026A22F0100202624468826922F4E6428F
:104860000D6842EA052223F020038D6843EA051310
:104870000E4DA84209D00D4DA8420ED04460826171
:104880004A688263036230BC704723F08003CD68BE
:1048900043EA051323F04003EDE724F440644D6937
:1048A00044EA85048D6944EA8504E7E70000014095
:1048B00038B590F83C30012B66D004460D460123F4
:1048C00080F83C300C2A5AD8DFE802F007595959D1
:1048D0001B5959593059595944000068FFF7A2FD36
:1048E0002268936943F0080393612268936923F077
:1048F000040393612268936929690B439361002043
:104900003EE00068FFF7A2FF2268936943F400636A
:1049100093612268936923F48063936122689369A9
:10492000296943EA01239361002029E00068FFF729
:10493000A7FD2268D36943F00803D3612268D369D5
:1049400023F00403D3612268D36929690B43D3613F
:10495000002015E00068FFF7C5FD2268D36943F425
:104960000063D3612268D36923F48063D361226832
:10497000D369296943EA0123D361002000E00120C3
:10498000002384F83C3038BD0220FCE710B4846872
:1049900024F47F4C42EA03220A4342EA0C0282607A
:1049A00010BC704790F83C30012B78D010B504460D
:1049B000012380F83C30022380F83D300268936880
:1049C00023F47F4323F0770393600B68602B4CD074
:1049D00029D8402B54D00CD9502B22D1CA68496811
:1049E0000068FFF7A3FD50212068FFF7C4FD0020F9
:1049F00005E0202B0DD009D9302B0AD0012001234E
:104A000084F83D30002384F83C3010BD0BB1102BEE
:104A100005D119462068FFF7AEFD0020EFE7012021
:104A2000EDE70120EBE7B3F5805F34D0B3F5005F2D
:104A30000CD1CB684A6889680068FFF7A7FF226835
:104A4000936843F4804393600020D8E7702B24D10F
:104A5000CB684A6889680068FFF798FF2268936806
:104A600043F0770393600020C9E7CA68496800688B
:104A7000FFF76EFD60212068FFF77DFD0020BEE797
:104A8000CA6849680068FFF751FD40212068FFF7B8
:104A900072FD0020B3E70020B1E70120AFE702205C
:104AA0007047000090F83C30012B34D010B4012343
:104AB00080F83C30022380F83D3003685A689C68D7
:104AC00022F0700C0A6842EA0C025A600368134A2A
:104AD000934212D0B3F1804F0FD0A2F57C429342A3
:104AE0000BD002F58062934207D002F580629342B8
:104AF00003D002F59A32934204D124F080044A682C
:104B000014439C60012380F83D30002380F83C3042
:104B1000184610BC70470220704700BF00000140DB
:104B200090F83C30012B22D0012380F83C30CB6838
:104B300023F440738A68134323F480634A68134361
:104B400023F400630A68134323F480530A69134370
:104B500023F400534A69134323F48043CA6913437F
:104B600002685364002380F83C30184670470220E6
:104B7000704770477047026802F10C0353E8003F2A
:104B800023F490730C3242E800310029F3D102681B
:104B900002F1140353E8003F23F00103143242E80A
:104BA00000310029F3D1036B012B05D0202380F8BD
:104BB0004230002303637047026802F10C0353E89C
:104BC000003F23F010030C3242E800310029F3D1FA
:104BD000ECE790F84130DBB2212B01D00220704786
:104BE0008368B3F5805F17D0036A5A1C02621A7893
:104BF00003685A60C38C9BB2013B9BB2C3844BB920
:104C00000268D36823F08003D3600268D36843F05E
:104C10004003D360002070470369002BE4D1036A8E
:104C20001B880268C3F308035360036A02330362FC
:104C3000E0E7000038B504460268136923F44053E6
:104C4000C1680B43136183680269134342691343CC
:104C5000C2691A430168CB6823F4164323F00C039E
:104C60001343CB600268536923F4407381690B439B
:104C700053610368314A934206D002F58062934241
:104C800002D0FFF7AFFB01E0FFF7BCFBE369B3F530
:104C9000004F29D00021031849411B1841F10001A0
:104CA000C90041EA5371DB00181863684FEA8302B8
:104CB0004FEA937341F10001FBF7C8FF204DA5FBBC
:104CC00000325109642303FB11031B013233A5FB9E
:104CD00003235B0903F0F00202EB011203F00F0360
:104CE000216813448B6038BD0023021843EB030195
:104CF000121841F10001C90041EA5271D2001018A6
:104D000041F10001626892185B41FBF79FFF0C4D77
:104D1000A5FB00325109642303FB1103DB0032338E
:104D2000A5FB03235B095A0002F4F87202EB01129F
:104D300003F00703216813448B60D4E7001001409F
:104D40001F85EB512DE9F04383B005460E4617460B
:104D50009946DDF828802C68246836EA04030CBFE5
:104D60004FF0010C4FF0000CBC4528D1B8F1FF3FCB
:104D7000F1D0FDF7D5FFA0EB0900404523D8B8F1ED
:104D8000000F22D02B68DA6812F0040FE3D0802ED7
:104D9000E1D0402EDFD01A6812F0080FDBD00024DB
:104DA00001941A6801925B680193019B2846FFF702
:104DB000E2FE08236B6485F84040012000E00020FB
:104DC00003B0BDE8F0830320FAE70320F8E760B3FF
:104DD00010B5044690F8413013B3242384F84130D1
:104DE0002268D36823F40053D3602046FFF722FFE4
:104DF0002268136923F4904313612268536923F0F6
:104E00002A0353612268D36843F40053D36000201F
:104E10006064202384F8413084F84230606310BD20
:104E200080F84030FDF79CFED7E7012070472DE960
:104E3000F04182B01E4690F84130DBB2202B56D1B3
:104E400004460D469046002955D00AB901204FE08E
:104E500000234364212380F84130FDF761FF0746BA
:104E6000A4F82480A4F82680A368B3F5805F02D05C
:104E70004FF0000814E023692BB34FF000080FE057
:104E8000202384F84130032032E038F8023B2268C6
:104E9000C3F308035360E28C92B2013A92B2E28407
:104EA000E38C9BB293B100963B46002280212046C2
:104EB000FFF748FF0028E3D1002DE6D015F8012BBD
:104EC00023685A60E7E7A8460025E9E700963B46D5
:104ED000002240212046FFF735FF18B9202384F82F
:104EE000413005E0202384F84130032000E0022017
:104EF00002B0BDE8F0810120FAE7704708B501680B
:104F0000CA6822F04002CA60202280F84120FFF7E0
:104F1000F4FF002008BD704708B5806B0023C385EF
:104F2000C384FFF7F8FF08BD704790F84230DBB24A
:104F3000222B69D18368B3F5805F4FD0826AB3F5C5
:104F4000805F04D0002B56D10369002B53D1036836
:104F50005B681370836A01338362C38D9BB2013B2C
:104F60009BB2C385002B51D100B583B00268D368D2
:104F700023F02003D3600268D36823F48073D360E6
:104F80000268536923F001035361202380F8423003
:104F900000234363036B012B33D1002303630268B7
:104FA00002F10C0353E8003F23F010030C3242E8F7
:104FB00000310029F3D103681A6812F0100F06D0EF
:104FC000002201921A6801925B680193019B818D16
:104FD000FFF7AAFF002003B05DF804FB0269002A76
:104FE000ACD1826A03685B68C3F308031380836AE9
:104FF00002338362B1E703685B6803F07F031370D9
:10500000A8E7FCF7FFFEE5E70220704700207047A5
:1050100030B583B0044602681368D068516913F054
:105020000F0505D113F0200F02D010F0200F19D179
:105030002DB111F0010119D110F4907F16D1216B1F
:1050400001297DD013F0800F03D010F0800F40F0C5
:10505000198113F0400F03D010F0400F40F016817B
:1050600003B030BD2046FFF760FFF9E713F0010FF2
:1050700006D010F4807F03D0626C42F001026264BB
:1050800013F0040F04D019B1626C42F002026264A2
:1050900013F0020F04D019B1626C42F00402626492
:1050A00013F0080F07D010F0200F00D119B1626C77
:1050B00042F008026264626C002AD1D013F0200F23
:1050C00002D010F0200F29D123685B6903F0400360
:1050D000626C12F0080F00D163B32046FFF74BFD5E
:1050E00023685B6913F0400F20D0226802F114039B
:1050F00053E8003F23F04003143242E80031002916
:10510000F3D1E36B73B1634A1A65E06BFDF7EAFE16
:105110000028A5D0E06B036D9847A1E72046FFF774
:1051200004FFD1E72046FFF7F6FE99E72046FFF798
:10513000F2FE95E72046FFF7EEFE002363648FE75B
:1051400013F0100F3FF47EAF10F0100F3FF47AAF62
:10515000002301931368019353680193019B5369E2
:1051600013F0400F52D0E26B13685B689BB2002BC8
:105170003FF476AFA18D99427FF672AFE385D36994
:10518000B3F5807F37D0226802F10C0353E8003F6B
:1051900023F480730C3242E800310029F3D12268F5
:1051A00002F1140353E8003F23F00103143242E8F4
:1051B00000310029F3D1226802F1140353E8003FC3
:1051C00023F04003143242E800310029F3D12023B8
:1051D00084F8423000232363226802F10C0353E871
:1051E000003F23F010030C3242E800310029F3D1D4
:1051F000E06BFDF72DFE02236363A18DE38D9BB26F
:10520000C91A89B22046FFF78FFE29E7A18DE38DE9
:105210009BB2C91A89B2E38D9BB2002B3FF420AF39
:1052200000293FF41DAF226802F10C0353E8003F50
:1052300023F490730C3242E800300028F3D1226846
:1052400002F1140353E8003F23F00103143242E853
:1052500000300028F3D1202384F842300023236358
:10526000226802F10C0353E8003F23F010030C32D4
:1052700042E800300028F3D1022363632046FFF7A1
:1052800053FEEDE62046FFF7A4FCE9E62046FFF7D3
:1052900035FEE5E6194F000881628285C28500234C
:1052A0004364222380F84230036923B10268D36843
:1052B00043F48073D3600268536943F00103536180
:1052C0000268D36843F02003D3600020704708B51C
:1052D00090F84230DBB2202B08D149B10AB9012045
:1052E00008BD00230363FFF7D7FFF9E70220F7E7C4
:1052F0000120F5E7014B1868704700BF1C00002033
:1053000070B50D4E0D4D761BB61006D0002455F825
:10531000043B01349847A642F9D1094E094D761B4A
:1053200006F058F9B61006D0002455F8043B0134B5
:105330009847A642F9D170BD70BF000870BF000841
:1053400078BF000870BF0008830730B548D0541EEE
:10535000002A3FD0CAB2034601E0013C3AD303F829
:10536000012B9D07F9D1032C2DD9CDB245EA052596
:105370000F2C45EA054536D9A4F1100222F00F0C96
:1053800003F1200EE6444FEA121C03F1100242E939
:10539000045542E9025510327245F8D10CF1010270
:1053A00014F00C0F03EB021204F00F0C13D0ACF14D
:1053B000040323F003030433134442F8045B9342D1
:1053C000FBD10CF003042CB1CAB21C4403F8012B2E
:1053D0009C42FBD130BD64461346002CF4D1F9E762
:1053E00003461446BFE71A46A446E0E70FB400B5EB
:1053F000074983B004AB086853F8042B8168019314
:1054000000F05EF803B05DF804EB04B0704700BF35
:105410001C00002070B5054688B008460C46FBF716
:105420004FFE224EAA6B059001214318CDE906617B
:1054300004A8022104940393AC680190029122B362
:10544000636E13F0010FB4F90C309AB201D19805D4
:1054500025D5910406D4626E43F4005322F4005221
:10546000A3816266284601AA214603F005F9636E0E
:10547000002814BF4FF0FF350A25DA0702D4A389AC
:105480009B0506D5284608B070BD284602F0F6FEFA
:10549000D6E7A06D03F092FA284608B070BDA06D63
:1054A00003F08AFAB4F90C309AB2D2E784B6000855
:1054B000024B01461868FFF7ADBF00BF1C0000207B
:1054C0002DE9F04FD5B01C4607919146054609904D
:1054D00003F06AFA0268179210460E94FBF7F0FD8B
:1054E00016901DB1AB6B002B00F02A82079A536E09
:1054F000DD0740F13881B2F90C2091B28F0409D454
:10550000079B42F400529A8191B21A465B6E23F4D3
:10551000005353660E0740F1CB80079B1B69002B9D
:1055200000F0C68001F01A030A2B00F0CF8000249F
:105530002BAB4D46CDE92944CDE91944CDE91B44B7
:10554000129428939846189400230B940024CDE9D4
:1055500014342B78002B00F09D81AA4604E01AF841
:10556000013F002B00F0C780252BF8D1BAEB0506D0
:1055700040F0C5809AF80030002B00F08B810023AA
:105580004FF0FF329AF801608DF883300A930AF1E8
:10559000010A08921F462B244FF020090AF1010A44
:1055A000A6F120035A2B00F2ED80DFE813F0EB02A6
:1055B000EB00EB00E602EB00EB00EB006A00EB0017
:1055C000EB005C028002EB0067028A02EB008502BE
:1055D0005B005B005B005B005B005B005B005B00F3
:1055E0005B00EB00EB00EB00EB00EB00EB00EB00F3
:1055F0007A01EB00F801D2017A017A017A01EB001D
:10560000EB00EB00EB00E102EB00EB002D02EB0006
:10561000EB00EB000202EB00A402EB00EB008307BF
:10562000EB00EB00EB00EB00EB00EB00EB00EB0022
:105630007A01EB00F801D4017A017A017A01C702FC
:10564000D401CD01EB00D402EB006C022F02B502B5
:10565000CD01EB0002027E008007EB00EB0061074A
:10566000EB007E00A6F1300300221AF8016B02EB7A
:10567000820203EB4202A6F13003092BF5D90A920C
:105680008EE7DDF824B0584603F08EF943681B938B
:105690001846FBF715FD1C900646584603F084F9A2
:1056A00083681993002E40F0CD869AF8006075E764
:1056B000079D0998294601F0ADFC002841F01C83A4
:1056C000A98901F01A030A2B7FF431AF079AB2F9C6
:1056D0000E30002BFFF62BAF536ED80702D489058E
:1056E00041F13B810799099823464A4655B0BDE8E8
:1056F000F04F01F04FBCBAEB050600F0CB802A9BBF
:1057000033442A93299B0133072BC8E90056299378
:1057100005DC08F108080B9B33440B932AE7079933
:10572000099828AA04F088FB80B90DF1AC08F2E7CB
:105730000799099828AA04F07FFB002800F09B80B5
:105740000D9B1BB10998194602F090FE079A536E03
:10575000D90740F1EA8093895B0601F1D9820B9861
:1057600055B0BDE8F08F079BB3F90C20900591B2BE
:105770003FF5C4AE1D46986D03F01EF9B5F90C2037
:1057800091B2BBE6002E00F0858000228DF8EC601F
:105790008DF883200123CDE90C32069308920F92F5
:1057A000139210923BAD17F0020302D0069902311A
:1057B000069117F0840B07D10A990698A1EB00090E
:1057C000B9F1000F00F370832A9C8AB1299A0DF178
:1057D000830101320134C8F80010072A4FF001019B
:1057E0002A942992C8F8041000F3B68308F1080837
:1057F00083B1299B21AA01330234C8F80020072B6A
:105800004FF002022A942993C8F8042000F3B283CF
:1058100008F10808BBF1800F00F06982089B0C9A20
:10582000A3EB020BBBF1000F00F3AA82FB0500F112
:1058300000820C9BC8F804301C44299BC8F8005017
:105840000133072B2A94299300F3228308F10808D7
:10585000780705D50A9B069A9D1A002D00F39683BA
:10586000DDE90A2306998A42ACBF9B185B180B93AB
:10587000002C7FF45DAF002329930D9B1BB10D9984
:10588000099802F0F3FD0DF1AC0855462B78002B7A
:105890007FF463AE2A9B002B41F0D3810023299330
:1058A00054E70E9B073323F00702F2E80234CDE9F8
:1058B0001434DDE9143424F000440E92994618465D
:1058C0002146B54B4FF0FF32FBF754FF002840F064
:1058D000EF84B14B484621464FF0FF32FBF72CFFD7
:1058E000002840F0E584DDE9140100220023FBF7E5
:1058F00019FF002840F067879DF88320A74DA84B2B
:1059000027F080070321472EC8BF1D4600230D93B3
:1059100006910C9108930F9313931093002A3FF470
:1059200042AF069B013306933DE7079B9B899A058F
:105930003FF512AF079CA06D03F040F8A3890BE779
:10594000099802F09BFCD1E59AF8006047F0200727
:1059500024E647F01007BA060E9B40F13B8407335C
:1059600023F007031A465B6852F8084B0E929946DB
:10597000002BC0F24C84089B013300F0D88254EA1B
:10598000090327F0800B40F0D382089B002B40F0E6
:10599000D4825F46002308930C9354AD1DE10E9B07
:1059A000002253F8041B8DF883208DF8EC100E9321
:1059B000F0E60E9C089B54F8045B4FF000098DF84C
:1059C0008390002D00F093855A1C00F051861A46F2
:1059D00049462846FBF7E4FB0D90002801F00E81B4
:1059E0000D9BCDF820905B1B0C930E9423EAE37380
:1059F0009DF883200693CDF83490CDF83C90CDF8F7
:105A00004C90CDF8409089E747F0100717F0200937
:105A100000F0D2830E9B073323F00703D3F80490E2
:105A200053F8084B0E9327F4806B002300228DF867
:105A30008320089A511C00F0B88054EA09012BF029
:105A4000800740F0B180002A40F0F685002BA1D1FC
:105A50001BF001030C9300F0148430238DF84F31B8
:105A60000DF24F15B9E00E9B53F8042B0A92002A51
:105A700080F2DA830A9A0E9352420A929AF80060F0
:105A800047F004078AE5BD0600F1D184FC0600F169
:105A9000D885780600F1A586B90540F1D2850E9B20
:105AA0000B9953F8042B0E9311705546EEE69AF8B5
:105AB00000608DF8834071E59AF8006047F0800738
:105AC0006CE5524612F8016B2A2E01F03F82A6F1D6
:105AD0003003092B924698BF002201F2BC801AF8CD
:105AE000016B02EB820203EB4202A6F13003092BA9
:105AF000F5D9089254E547F0100B1BF0200900F08F
